:100000000C9434000C943E000C943E000C943E0082
:100010000C943E000C943E000C943E000C943E0068
:100020000C943E000C943E000C943E000C943E0058
:100030000C943E000C943E000C943E000C943E0048
:100040000C943E000C943E000C943E000C943E0038
:100050000C943E000C943E000C943E000C943E0028
:100060000C943E000C943E0011241FBECFEFD4E050
:10007000DEBFCDBF0E947B000C94AD000C9400004D
:100080001092C50080E48093C40082E08093C00099
:1000900088E18093C10086E08093C200519A089560
:1000A0008091C00087FFFCCF8091C6000895909199
:1000B000C00095FFFCCF8093C6000895282F22959D
:1000C0002F708F702A30A0F420638A3070F4806320
:1000D0009091C00095FFFCCF2093C6009091C00086
:1000E00095FFFCCF8093C600089589508064F0CFBF
:1000F00029502064EACF219A0E94400080E4809336
:100100007C0087E880937A008AE30E945700C0E071
:100110008C2F806480937C0080917A00806480932F
:100120007A0080917A0084FFFCCF80917A00806110
:1001300080937A0080917800909179000E94570016
:10014000CF5FC33029F72FE38DE093E0215080404B
:0E0150009040E1F700C00000D7CFF894FFCF39
:00000001FF
