:100000000C9434000C943E000C943E000C943E0082
:100010000C943E000C943E000C943E000C943E0068
:100020000C943E000C943E000C943E000C943E0058
:100030000C943E000C943E000C943E000C943E0048
:100040000C943E000C943E000C943E000C943E0038
:100050000C943E000C943E000C943E000C943E0028
:100060000C943E000C943E0011241FBECFEFD4E050
:10007000DEBFCDBF0E947B000C94EF000C9400000B
:100080001092C50080E48093C40082E08093C00099
:1000900088E18093C10086E08093C200519A089560
:1000A0008091C00087FFFCCF8091C6000895909199
:1000B000C00095FFFCCF8093C6000895282F22959D
:1000C0002F708F702A30A0F420638A3070F4806320
:1000D0009091C00095FFFCCF2093C6009091C00086
:1000E00095FFFCCF8093C600089589508064F0CFBF
:1000F00029502064EACFCF93DF9300D01F92CDB771
:10010000DEB70E94400080E680937C0087E8809301
:100110007A0000E010E0FE01319690E0892F8066C1
:1001200080937C0080917A00806480937A00809133
:100130007A0084FFFCCF80917A00806180937A00FE
:100140008091790081939F5F933041F789819A81F3
:100150002B818131B0F09817A0F4281790F481E03A
:100160001230C1F0133099F1113059F1111117C04B
:10017000182F0130C1F0023071F68CE30E94570055
:10018000CACF9131A0F0891790F42917A0F483E029
:10019000123041F78130C9F08330F9F000E081116D
:1001A000E7CF013041F78EE30E945700B4CF2131F1
:1001B00010F480E0D5CF8217E0F79217D0F782E0F5
:1001C000CFCF823051F0833049F701E0D1CF813079
:1001D00021F08230D1F300E0E2CF02E0C9CFF89401
:0201E000FFCF4F
:00000001FF
